:100000000C9462000C948A000C948A000C948A0070
:100010000C948A000C948A000C948A000C948A0038
:100020000C948A000C948A000C948A000C948A0028
:100030000C948A000C948A000C948A000C948A0018
:100040000C9499020C948A000C9467020C9441025F
:100050000C948A000C948A000C948A000C948A00F8
:100060000C948A000C948A000000000025002800EF
:100070002B0000000000240027002A0000000000E0
:1000800023002600290004040404040404040202DA
:100090000202020203030303030301020408102007
:1000A0004080010204081020010204081020000012
:1000B0000008000201000003040700000000000027
:1000C0000000CF0411241FBECFEFD8E0DEBFCDBFAC
:1000D00011E0A0E0B1E0ECE4FAE002C005900D927E
:1000E000A632B107D9F721E0A6E2B1E001C01D9226
:1000F000A43DB207E1F710E0C2E6D0E004C02197CA
:10010000FE010E941E05C136D107C9F70E94E30215
:100110000C9424050C940000AF92BF92CF92DF9212
:10012000EF92FF920F931F93CF93DF936C017B01AC
:100130008B01040F151FEB015E01AE18BF08C0173D
:10014000D10759F06991D601ED91FC910190F081B0
:10015000E02DC6010995892B79F7C501DF91CF9173
:100160001F910F91FF90EF90DF90CF90BF90AF90D5
:100170000895FC01538D448D252F30E0842F90E0AD
:10018000821B930B541710F0CF9608950197089592
:10019000FC01918D828D981761F0A28DAE0FBF2F5B
:1001A000B11D5D968C91928D9F5F9F73928F90E0B1
:1001B00008958FEF9FEF0895FC01918D828D981720
:1001C00031F0828DE80FF11D858D90E008958FEF5D
:1001D0009FEF0895FC01918D228D892F90E0805C26
:1001E0009F4F821B91098F739927089587E391E0B0
:1001F0000E94EA0021E0892B09F420E0822F089573
:1002000080E090E0892B29F00E94F60081110C9487
:1002100000000895FC01A48DA80FB92FB11DA35AA9
:10022000BF4F2C91848D90E001968F739927848F16
:10023000A689B7892C93A089B1898C918370806439
:100240008C93938D848D981306C00288F389E02DDA
:1002500080818F7D80830895EF92FF920F931F938B
:10026000CF93DF93EC0181E0888F9B8D8C8D981369
:100270001AC0E889F989808185FF15C09FB7F89475
:10028000EE89FF896083E889F989808183708064C1
:1002900080839FBF81E090E0DF91CF911F910F910C
:1002A000FF90EF900895F62E0B8D10E00F5F1F4F1B
:1002B0000F731127E02E8C8D8E110CC00FB607FC2A
:1002C000FACFE889F989808185FFF5CFCE010E94B8
:1002D0000A01F1CFEB8DEC0FFD2FF11DE35AFF4F1B
:1002E000F0829FB7F8940B8FEA89FB898081806246
:1002F000CFCFCF93DF93EC01888D8823B9F0AA8903
:10030000BB89E889F9898C9185FD03C0808186FDD0
:100310000DC00FB607FCF7CF8C9185FFF2CF80811F
:1003200085FFEDCFCE010E940A01E9CFDF91CF9189
:100330000895833081F028F4813099F08230A9F05B
:1003400008958730A9F08830C9F08430B1F48091E5
:1003500080008F7D03C0809180008F778093800024
:10036000089584B58F7784BD089584B58F7DFBCFC4
:100370008091B0008F778093B00008958091B00095
:100380008F7DF9CF1F93CF93DF93282F30E0F901B2
:10039000E255FF4F8491F901E656FF4FD491F901E0
:1003A000EA57FF4FC491CC23A9F0162F81110E9468
:1003B0009901EC2FF0E0EE0FFF1FE859FF4FA591D8
:1003C000B4918FB7F894EC91111108C0D095DE2349
:1003D000DC938FBFDF91CF911F910895DE2BF8CF73
:1003E000FC0101900020E9F73197AF01481B590B40
:1003F000BC0187E391E00C948C008F929F92AF92A6
:10040000BF920F931F93CF93DF93CDB7DEB7A19722
:100410000FB6F894DEBF0FBECDBF19A2423008F46C
:100420004AE08E010F5D1F4F842E912CB12CA12C20
:10043000A50194010E94FC04E62FB901CA01EA302B
:10044000F4F4E05DD801EE938D01232B242B252BB2
:1004500079F790E080E0109719F0CD010E94F0014B
:10046000A1960FB6F894DEBF0FBECDBFDF91CF913E
:100470001F910F91BF90AF909F908F900895E95C6E
:10048000E1CF1F920F920FB60F9211242F933F933B
:100490004F935F936F937F938F939F93AF93BF938C
:1004A000EF93FF9387E391E00E940A01FF91EF91A0
:1004B000BF91AF919F918F917F916F915F914F917C
:1004C0003F912F910F900FBE0F901F9018951F9284
:1004D0000F920FB60F9211242F938F939F93EF9348
:1004E000FF93E0914701F09148018081E0914D0137
:1004F000F0914E0182FD1BC09081809150018F5F71
:100500008F7320915101821741F0E0915001F0E08A
:10051000E95CFE4F958F80935001FF91EF919F9181
:100520008F912F910F900FBE0F901F901895808183
:10053000F4CF1F920F920FB60F9211242F933F9377
:100540008F939F93AF93BF9380912B0190912C0138
:10055000A0912D01B0912E0130912A0123E0230FAB
:100560002D3758F50196A11DB11D20932A018093C6
:100570002B0190932C01A0932D01B0932E0180911B
:10058000260190912701A0912801B091290101969F
:10059000A11DB11D8093260190932701A0932801EE
:1005A000B0932901BF91AF919F918F913F912F916E
:1005B0000F900FBE0F901F90189526E8230F0296FC
:1005C000A11DB11DD2CF789484B5826084BD84B55D
:1005D000816084BD85B5826085BD85B5816085BD3E
:1005E00080916E00816080936E00109281008091F6
:1005F000810082608093810080918100816080937E
:100600008100809180008160809380008091B100A2
:1006100084608093B1008091B00081608093B000CD
:1006200080917A00846080937A0080917A00826061
:1006300080937A0080917A00816080937A00809123
:100640007A00806880937A001092C10022E030E046
:10065000F901E656FF4F4491F901EA57FF4F8491A3
:10066000882399F090E0880F991FFC01EE58FF4F06
:10067000A591B491FC01E859FF4F859194918FB7F2
:10068000F894EC91E42BEC938FBF2F5F3F4F2A300F
:100690003105F1F6E6EAF0E02491E2E92E2EE0E001
:1006A0003E2EF10184918823C1F090E0880F991FBC
:1006B000FC01EE58FF4FA591B491FC01E859FF4FA2
:1006C000C591D4913FB7F8949C91822F809598233F
:1006D0009C939881892388833FBFE0914701F091E3
:1006E000480182E08083E0914301F091440110824F
:1006F000E0914501F09146018FEC808310924F010B
:10070000E0914B01F0914C0186E08083E09149013A
:10071000F0914A01808180618083E0914901F091EC
:100720004A01808188608083E0914901F0914A010B
:10073000808180688083E0914901F0914A01808145
:100740008F7D808350E0852E50E0952EC1E0D0E073
:1007500006E010E067E0A62EB12C8FB7F894409029
:100760002B0150902C0160902D0170902E018FBFB5
:100770008091330190913401A0913501B0913601FF
:10078000A3019201281B390B4A0B5B0BDA01C9014B
:1007900080369A4EA105B10508F44AC08091060141
:1007A0009091070101969093070180930601409272
:1007B000330150923401609235017092360161E04C
:1007C0000E94C2018AE191E00E94F001C090040100
:1007D000D09005010D2C000CEE08FF084AE0C7017F
:1007E000B601F7FE0DC06DE287E391E00E942C0197
:1007F00066277727CB016C197D098E099F094AE08E
:100800000E94FD0183E291E00E94F0014AE0C301F1
:10081000B2010E94FD0183E291E00E94F00180910B
:1008200004019091050101969093050180930401C4
:1008300080910601909107010697F1F480910201E1
:10084000909103018630910509F081C061E086E056
:100850000E94C20142E0F42E60E08F2D0E94C2018E
:10086000F39446E0F412F8CFD0930701C093060149
:10087000B0920301A09202018091000190910101C8
:100880000A97B1F422E0F22E60E08F2D0E94C2019F
:10089000F394EAE0FE12F8CFD0930701C09306016B
:1008A0001093030100930201B0920101A092000194
:1008B000EAEBF0E08491E6EAF0E0F490F101E490F4
:1008C000EE2009F469C081110E949901EE2DF0E03B
:1008D000EE0FFF1FE458FF4FA591B4918C91F822C1
:1008E00091E080E009F490E0E92EF82EF0923201D8
:1008F000E092310180912F01909130018E159F057A
:10090000D1F082E0D82E60E08D2D0E94C201D394F8
:10091000FAE0DF12F8CFD0930701C09306011093DD
:10092000030100930201B0920101A0920001F09234
:100930003001E0922F018114910409F40ECF0E943E
:10094000F600882309F409CF0E94000006CF07971C
:1009500009F092CFE0900001F090010161E08E2D4E
:100960000E94C20132E0D32E60E08D2D0E94C201B0
:10097000D39457E0D512F8CFD0930701C093060166
:1009800010930301009302018FEFE81AF80AF09226
:100990000101E092000170CFF12CE12CA7CFE7E339
:1009A000F1E01382128288EE93E0A0E0B0E084834D
:1009B0009583A683B7838CE091E09183808385EC57
:1009C00090E09587848784EC90E09787868780EC19
:1009D00090E0918B808B81EC90E0938B828B82EC0A
:1009E00090E0958B848B86EC90E0978B868B118EB4
:1009F000128E138E148E0895A1E21A2EAA1BBB1B11
:100A0000FD010DC0AA1FBB1FEE1FFF1FA217B307DA
:100A1000E407F50720F0A21BB30BE40BF50B661FF0
:100A2000771F881F991F1A9469F7609570958095B4
:100A300090959B01AC01BD01CF010895EE0FFF1F02
:0C0A40000590F491E02D0994F894FFCF8C
:100A4C000700060001000100000000002C018C00D2
:100A5C00B9007901EA00C800DC004D696E75746557
:060A6C003A20000D0A0013
:107E0000112484B714BE81FFF0D085E080938100F7
:107E100082E08093C00088E18093C10086E0809377
:107E2000C20080E18093C4008EE0C9D0259A86E02C
:107E300020E33CEF91E0309385002093840096BBD3
:107E4000B09BFECF1D9AA8958150A9F7CC24DD24C4
:107E500088248394B5E0AB2EA1E19A2EF3E0BF2EE7
:107E6000A2D0813461F49FD0082FAFD0023811F036
:107E7000013811F484E001C083E08DD089C08234E0
:107E800011F484E103C0853419F485E0A6D080C0E4
:107E9000853579F488D0E82EFF2485D0082F10E0AE
:107EA000102F00270E291F29000F111F8ED06801E7
:107EB0006FC0863521F484E090D080E0DECF843638
:107EC00009F040C070D06FD0082F6DD080E0C81688
:107ED00080E7D80618F4F601B7BEE895C0E0D1E017
:107EE00062D089930C17E1F7F0E0CF16F0E7DF06D8
:107EF00018F0F601B7BEE89568D007B600FCFDCFD4
:107F0000A601A0E0B1E02C9130E011968C91119780
:107F100090E0982F8827822B932B1296FA010C0160
:107F200087BEE89511244E5F5F4FF1E0A038BF0790
:107F300051F7F601A7BEE89507B600FCFDCF97BE46
:107F4000E89526C08437B1F42ED02DD0F82E2BD052
:107F50003CD0F601EF2C8F010F5F1F4F84911BD097
:107F6000EA94F801C1F70894C11CD11CFA94CF0C13
:107F7000D11C0EC0853739F428D08EE10CD085E9AC
:107F80000AD08FE07ACF813511F488E018D01DD067
:107F900080E101D065CF982F8091C00085FFFCCF94
:107FA0009093C60008958091C00087FFFCCF809118
:107FB000C00084FD01C0A8958091C6000895E0E648
:107FC000F0E098E1908380830895EDDF803219F02E
:107FD00088E0F5DFFFCF84E1DECF1F93182FE3DFCA
:107FE0001150E9F7F2DF1F91089580E0E8DFEE27F6
:047FF000FF270994CA
:027FFE00040479
:0400000300007E007B
:00000001FF
